:020000040800F2
:10000000F0FF0010F99907083904070825B902081C
:10001000999A0708999A0708999A0708000000001A
:100020000000000000000000000000003D04070880
:10003000410407080000000045040708E19C02088D
:10004000999A0708999A0708999A0708999A0708A8
:10005000999A0708999A0708A5840208C984020892
:10006000018502083985020871850208B1CA0008B5
:10007000C1CA0008D1CA0008E1CA0008F5CA0008D0
:1000800009CB00081DCB0008999A0708999A070820
:10009000999A0708999A0708999A0708A985020862
:1000A000D1B4020831B40208E1B4020821B4020854
:1000B00059B4020869B4020879B4020801BD000805
:1000C00025C2000809BD000829C20008999A07083E
:1000D000999A0708699602086D97020871980208B4
:1000E000E1850208999A0708F10A0708F1B40208A5
:1000F000A9B4020801B5020899B4020831CB00087E
:10010000999A070849F5000889B40208999A0708DE
:1001100075990208799A0208999A0708999A070826
:1001200045CB000859CB00086DCB000881CB0008F7
:1001300095CB0008999A0708999A0708999A070891
:10014000999A0708999A0708999A0708490407088D
:10015000A9CB0008BDCB0008D1CB00087D9B0208CD
:1001600011BD00082DC20008999A0708999A07083E
:10017000999A0708999A0708999A0708999A070877
:08018000999A0708999A0708F3
:0828000000C00F0800001008E1
:1080000082B01E4B002201920193019B1C4A043353
:108010000193019B1968936803F00C03042B06D0AD
:10802000082B08D0174B184A1A6002B07047154B3E
:10803000196002B070475368506813F4800F00F065
:108040003F00536812D1C3F388130F49B1FBF0F11D
:1080500001FB03F30A4A0B495268C2F301420132A1
:108060005200B3FBF2F30B6002B07047C3F3881306
:10807000B1FBF0F101FB03F3ECE700BF5028004037
:1080800000380240301E00200024F400074BD0F8D6
:10809000E4105B68D0F8F0205B1A9A42B8BFC0F8D1
:1080A000F030012380F81C3100207047001000E000
:1080B000B84B00EB800103EBC10170B54A68526810
:1080C000B2F814E01EF0010F4FEA800C6ED15FFA97
:1080D0008EF4A60742D5BFF35F8F91F82040012CA4
:1080E000E5B200F0D180118BBFF35F8F0CEB000184
:1080F00003EBC10191F82040022C00F0E7800CEB6B
:10810000000103EBC10191F82040032C07D191F845
:10811000221021B193F87D10002940F0E78091886A
:1081200089B241F48061918093F97C100CEB000ED0
:1081300003EBCE0E9EF820E00EF1010E8E450CD121
:10814000002183F87D1093F87E10002940F0B7805D
:10815000604403EBC00300225A7770BD65075DD40D
:1081600014F0400400F0CB80148A93F97C508E6A9E
:10817000E4B274555FFA85FE0EF1010464B291F821
:10818000206083F87C40E51CAE42214600F025814A
:108190000CEB000503EBC50595F82050AC42C5D1AA
:1081A0000EF1020149B283F87C10BFE7B2F800E09B
:1081B0002EF4006E4FEA0E4E4FEA1E4EA2F800E07B
:1081C0001488A4B244F48064148091F822400025FD
:1081D00083F87C50002C48D093F87D40002C41D08F
:1081E000012183F87D100CEB000103EBC10191F834
:1081F0002010022904D1118889B241F40061118054
:108200000CEB000103EBC101897F41F001011182F8
:10821000604403EBC00393F8203070BD91F8224016
:10822000012583F87E50002C70D093F87D40002CFF
:1082300071D10CEB000103EBC10191F82110002971
:1082400000F0AA80118889B241F40071118093F87E
:108250007C1001314CB283F87C401188CE05FCD4EF
:10826000214663E7C97FFF29BAD00CEB000103EB7D
:10827000C1018C7F04F0FE041482CA7FFF2AC7D09C
:10828000FF2283F87C20C3E791F8221000293FF4F5
:108290002AAF93F87D1000293FF425AF118821F40F
:1082A00080610904090C1180BFF35F8F118B118865
:1082B00083F87E5089B241F4007111802FE79188D4
:1082C00021F440710904090C918041E791F82210D2
:1082D00000293FF414AF93F87D1000293FF40FAF4D
:1082E000118821F480610904090C1180918821F41E
:1082F00080610904090C918093F97C1016E71FFA3C
:108300008EF52D062DD493F97C100FE793F87D1090
:1083100000298ED096E791F82040022C148846D987
:1083200024F480642404240C1480158A8E6A93F942
:108330007C40EDB235558E6A118889B241F40071E6
:108340001180E4B2158A611C49B2EDB2755491886E
:10835000023489B264B241F4806183F87C40918038
:108360007BE793F97C506E1C3ED04C6A665D1682AA
:108370006C1C91F8205064B2A54283F87C402146E1
:108380007FF4D4AE948824F480642404240C948074
:10839000CCE600BF301E0020118893F97C4089B2E2
:1083A00041F480711180012183F87D1055E7A4B25A
:1083B00044F400741480158A8E6A93F97C40EDB2FF
:1083C0003555E4B28E6A158A611C49B20334EDB2A8
:1083D00064B2755483F87C403FE7958825F4806546
:1083E0002D042D0C9580D3E683F87C40CC7F14823D
:1083F00091F8224024B991F8201000297FF408AFA9
:10840000918821F480610904090C918000E700BF84
:1084100030B5EAB18E464FEA014C034600F1C00583
:10842000002419689A6841EA0C0142EA0E029A6037
:10843000C3E900140C33AB42F3D1D0F8C030C0F81C
:10844000C44043EA0E03C0F8C030C0F8C84030BD95
:108450004FEA014E8C46E0E783691969B3F80CC016
:108460000A6830B49C6822F0010224680A60A2897C
:1084700092B222EA0C02A281027D04681F2A06D968
:108480006568203A08209040284245D0FEE72568DC
:10849000082090402842F9D1202000FA02F2A26080
:1084A000264A1278002A35D01A7E012A39D0D3F80C
:1084B000F4200132C3F8F420EFF31181502282F34B
:1084C000128858685C6C026822EA04029C6C2243A1
:1084D000C9B2026081F31188D3E90C401A69996826
:1084E0001D6C096814605061D3E90E4054609060BF
:1084F0000024B3F8A800D5604C62C862106801245B
:10850000204310601C7683F8F1408A899B891343CD
:108510009BB28B8130BC7047202000FA02F2E260EF
:10852000BEE7002283F8F120D3F8F8000A68013092
:1085300022F00102C3F8F8000A60EBE70400001023
:1085400010B40C4C6368002B11DD002004F1080C02
:108550000146DCF8A03003F1C00259600C339342AD
:10856000FBD16368013083420CF5807CF1DC5DF85F
:10857000044B704704000010F0B5494C04EB401C5C
:108580009CF8242402B9F0BD464B4FF08C0E0EFB34
:10859000003E93F8E06493F8E1249EF882708CF832
:1085A0000A7496424FF0000C4FEA40158EF882C0D4
:1085B0000ED002EB420C03EBCC0C57009CF8E4C449
:1085C0000CF1FF3EBEF1010F5CD9BCF1030F53D09B
:1085D0006019A0F80814EFF31182902383F3128836
:1085E00090F80A34B0F8081443EA41030021D2B2EB
:1085F0009BB280F80A1482F311881A09217882EA62
:1086000013225A40D9B1D0F82044D0F80C14D4F831
:10861000A040D2431B019BB202F00F020120884010
:10862000134304F1C0015A0013F4004F93B202D176
:108630006268024362600C348C42F4D1F0BDD0F821
:108640002014D0F80C04D1F8A0401B0100F1100157
:108650009BB202F00F0201208840134304F1C001D5
:108660005A0013F4004F93B202D162680243626071
:108670000C34A142F4D1F0BD02F1010C0CF0030C5A
:10868000B445A5D03A4403EBC202131893F8F11491
:1086900000299DD06319012283F80A2498E700BFBE
:1086A00004000010301E0020704700BF024B03EB97
:1086B000401090F825047047040000104368B0F89B
:1086C000502010B41A83EFF31182502383F31288E1
:1086D0004168446C0B6823EA0403C46C2343D2B2A0
:1086E0000B6082F31188D0E9074182680369126840
:1086F0001C605961D0E909415C60C46A9960B0F8B6
:108700006010DC600023D1625DF8044B0376704793
:10871000037D1F2B30B54FF02002046816D9A3F15A
:1087200020056168AA400A420FD00C4A002182F855
:10873000441541680A681F2B22F001020A604FF0BD
:10874000200206D9203B9A40E26030BD21689A4061
:10875000E9E702FA03F3A360F7E700BF301E002049
:10876000037D01681F2B10B54FF0200217D9A3F12C
:1087700020044968A2400A4210D00C4A002182F825
:10878000451541680A681F2B22F001020A60016842
:108790004FF0200206D9203B9A40CA6010BD0968FC
:1087A0009A40E8E702FA03F38B60F7E7301E0020F7
:1087B000437D13B1012B04D070474FF48063838154
:1087C00070474FF40063FAE74FF40063838170470A
:1087D0002DE9F04121F0D0FA1F4F204E05464FF011
:1087E00000087C68002C2ADD00231A4607EB0321D1
:1087F000013391F8F9109C4242EA0102F6D142EAB3
:108800000804E4B290467368C3F30803A3B9EFF316
:1088100011838BB921F004FB431BB3F5FA6F02DC23
:10882000B8F1000FDDD124B10D4B93F846254F2A46
:1088300009D02046BDE8F08121F072FAECE7444609
:108840004FF00008DFE7B3F84C250132A3F84C25C0
:108850002046BDE8F08100BF0400001000ED00E0FC
:10886000301E0020074BD0F8E4105B68D0F8F020F1
:108870005B1A9342C8BFC0F8F030012380F81C3166
:1088800000207047001000E04FF480538381704750
:10889000074BD0F8E4105B68D0F8F0205B1A9342E5
:1088A000C8BFC0F8F030012380F81C3100207047A9
:1088B000001000E0164BD0F8E0105A6810B50446DE
:1088C000D0F8D80071B1131A99420BDC94F8D0306B
:1088D000C4F8D820012B10D0D4F8D4300133C4F818
:1088E000D43010BDD4F8E430C4F8D8200344C4F820
:1088F000DC3094F8D030012BEED104F1E801201DDA
:108900001FF0AAF8D4F8D4300133C4F8D43010BD25
:10891000001000E02DE9F04F844C94F8502593B0FE
:10892000002A40F0FE8002F0FF03FF2283468DF80C
:1089300007200DF10702CDE90223CDE90633CDE989
:1089400008330B9302A9012304938DF814308DF89A
:1089500028301FF081F8DBF800305A6A1AB19345CD
:1089600000F0D080FEE71A6A002AFCD170484FF070
:10897000640E10274FF0E0224FF47A714FF0010897
:108980004368C3F30803002B40F09480EFF3118396
:10899000002B40F08F80D4F858359569D4F858658D
:1089A000B342F8D1D4F86065B542F4D8D4F85CA5E8
:1089B00001FB0AFCACEB050CBCFBFAFC01FB03CC95
:1089C0004368C3F30803002B55D1EFF31183002B49
:1089D00051D1D4F858559669D4F858359D42F8D1FC
:1089E000D4F860359E42F4D8D4F85CA501FB0AF3B4
:1089F0009B1BB3FBFAF301FB0533A3EB0C03B3F5AD
:108A00007A7FDDD3BEF1010EBAD10DF107030893D1
:108A10000123049309938DF828308DF83C3080238E
:108A20008DF806300DF106030022029302A90023FF
:108A30005846CDE90C23CDE906EECDF80CE08DF8D3
:108A400014E0CDF82CE0CDF838E0CDF840E01FF090
:108A500003F8DBF800305A6A12B193454BD0FEE7B9
:108A60001A6A002AFCD19DF80730D12B52D0002081
:108A700013B0BDE8F08FEFF3118A87F3128896697F
:108A80001369DB0344BFC4F854859669D4F858359C
:108A9000D4F854555FFA8AFA8AF3118805EB030972
:108AA000D4F85C5501FB05F39B1BB3FBF5F301FB0D
:108AB0000933A2E7EFF3118987F31288D2F818A0DF
:108AC0001369DD0344BFC4F85485D2F818A0D4F864
:108AD0005835D4F854555FFA89F989F311882B4435
:108AE000D4F85C5501FB05FCACEB0A0CBCFBF5FCB7
:108AF00001FB03CC64E71A6A002AB4D01A6A002A80
:108B0000F9D1B0E71A6A002A3FF430AF1A6A002A96
:108B1000F8D12BE701230E2084F8503513B0BDE8BF
:108B2000F08F0E2013B0BDE8F08F00BF301E002084
:108B300000ED00E010B504460E49D0F8D83094F8A6
:108B4000D020D0F8E40049680344012AC4E9361370
:108B500005D0D4F8D4300133C4F8D43010BD04F1BA
:108B6000E801201D1EF078FFD4F8D4300133C4F89A
:108B7000D43010BD001000E0F0B5866996F8DC3006
:108B8000012B8BB0054641D0023B012B34D8D6F8DF
:108B90009C30254C92221A70D6F89C3003F1010EBD
:108BA000D6F8A0305F1C0FCCEC46ACE80F000FCC21
:108BB000ACE80F0094E80300AB698CE80300694659
:108BC00003F11000CDE900E71EF046FFAA69136922
:108BD000596A103299B18A4200D0FEE71A6A002A17
:108BE000FCD1D6F8A030B3F90220EA81B3F9042011
:108BF0002A82B3F906306B8201200BB0F0BD1A6AED
:108C0000002AEED01A6A002AF9D1EAE7D6F8A03095
:108C1000B3F90820C281B3F90A200282B3F90C30FB
:108C2000438201200BB0F0BDE8B507082DE9F04FF5
:108C3000836893B0044613B11A689B885383B64B7C
:108C40005B68C3F30803002B40F04081EFF311830E
:108C5000002B40F03B81B14B4FF0E025D3F8581585
:108C6000A869D3F858258A42F8D1D3F8601588420C
:108C7000F4D8D3F85C654FF47A7505FB06F1091A50
:108C8000B1FBF6F105FB0211A34E4FF0E0204FF4CB
:108C90007A754FF0100C01277268C2F30802002A9F
:108CA00040F0C780EFF31182002A40F0C280D3F871
:108CB0005885D0F818E0D3F858259045F7D1D3F867
:108CC00060259645F3D8D3F85C9505FB09F2A2EB35
:108CD0000E02B2FBF9F205FB0822521AB2F57A7FB6
:108CE000DAD3A26812B1116892880A838A484FF0D9
:108CF0000A0B10254FF0E0214FF47A7C4268C2F352
:108D00000802002A40F0B780EFF31182002A40F0F9
:108D1000B280D3F85825D1F81880D3F85865B242FC
:108D2000F7D1D3F86065B045F3D8D3F85C950CFB68
:108D300009FEAEEB080EBEFBF9FE0CFB02EE42682C
:108D4000C2F30802002A54D1EFF31182002A50D155
:108D5000D3F858658F69D3F858259642F8D1D3F8DF
:108D600060259742F4D8D3F85CA50CFB0AF2D21B1D
:108D7000B2FBFAF20CFB0622A2EB0E02B2F57A7FEE
:108D8000DDD3BBF1010BB9D12368ADF804B05A6A49
:108D90002AB1944203D0002013B0BDE8F08F1B6AC3
:108DA000002BF8D180200DF103018DF80300029112
:108DB00001A80221CDE90801002000210122CDE90E
:108DC0000C0102A92046CDE90332CDE906338DF826
:108DD00014308DF828200B930E938DF83C201093BF
:108DE0001EF03AFE23685A6A002A68D094425AD08C
:108DF000FEE7EFF3118985F312888F690A69D203C0
:108E000003D50122C3F854258F69D3F85825D3F828
:108E100054655FFA89F989F3118806EB0208D3F8E3
:108E20005C650CFB06F2D21BB2FBF6F20CFB0822CF
:108E3000A2E7EFF311828CF31288D0F81880D0F8F3
:108E400010E01EF4803F03D0C3F85475D0F81880AA
:108E5000D3F85895D3F854E5D2B282F31188CE44B2
:108E6000D3F85C9505FB09F2A2EB0802B2FBF9F21C
:108E700005FB0E2231E7EFF3118E85F31288D1F84E
:108E800018800A69D60304D50122C3F85425D1F805
:108E90001880D3F85895D3F854255FFA8EFE8EF3D8
:108EA00011884A4441E71A6A002AFCD19DF805302E
:108EB000242B14BF00200F2013B0BDE8F08F1A6AD6
:108EC000002AF3D01A6A002AF9D1EFE7EFF31181F3
:108ED000102383F312884FF0E0229069136913F492
:108EE000803F0E4B03D00120C3F854059069D3F89E
:108EF0005855D3F85425C9B281F31188D3F85C656D
:108F000051194FF47A7505FB06F2121AB2FBF6F20C
:108F100005FB0121B8E600BF00ED00E0301E002097
:108F200010B504460E49D0F8D83094F8D020D0F8C7
:108F3000E40049680344012AC4E9361305D0D4F893
:108F4000D4300133C4F8D43010BD04F1E801201D41
:108F50001EF082FDD4F8D4300133C4F8D43010BDF3
:108F6000001000E070B5866996F8DC30012B8AB0FD
:108F7000054629D0023B012B31D8D6F89C301D4C38
:108F80008C221A700FCCEC46ACE80F00D6F89C305F
:108F90000093D6F8A03001930FCCACE80F0094E812
:108FA0000300AB698CE8030003F1100069461EF072
:108FB00053FDAA691369596A103299B18A4200D0E7
:108FC000FEE71A6A002AFCD1D6F8A030B3F90220D5
:108FD000EA81B3F904202A82B3F906306B820120BA
:108FE0000AB070BD1A6A002AEED01A6A002AF9D1B6
:108FF000EAE700BF10B60708F0B5836993F8DC20F4
:10900000012A8BB005462ED0023A012A36D893F8B1
:109010004C21D3F89C101E4C62F07F030B708669C4
:10902000D6F8A0305F1C0FCCEC46ACE80F00D6F8A9
:109030009C30CDE900370FCCACE80F0094E803007A
:109040008CE80300694606F110001EF005FDAB69CF
:109050001A69516A03F1100099B1884200D0FEE705
:10906000116A0029FCD1D3F8A0305A8852BAEA819B
:109070009A8852BA2A82DB885BBA6B8201200BB0D5
:10908000F0BD116A0029EED0116A0029F9D1EAE792
:10909000E8B507082DE9F04190F8DC30D0F8A06081
:1090A000012B8AB0044653D016D8D0F89C304FF02C
:1090B000FF321A605A609A60DA60D0F8E030052218
:1090C000B3F57A7FC0F8F02064D8032380F8DC3051
:1090D00001200AB0BDE8F081023B012BF8D890F8DE
:1090E0004D31D0F89C20424D63F07F031370D0F8CF
:1090F000A03000F110085F1C0FCDEC46ACE80F006B
:10910000D4F89C30CDE900370FCDACE80F0095E8DE
:1091100003008CE80300694640461EF09DFC23696D
:109120005A6A12B190452ED0FEE71A6A002AFCD185
:1091300073885BBAA4F8D030B3885BBAA4F8D23095
:10914000F38801205BBAA4F8D4300AB0BDE8F081FE
:1091500090F84C2190F84D319B1A5B100133DBB233
:1091600006EB430236F813305BBAA0F8D0305388D0
:109170005BBAA0F8D23093885BBAA0F8D430012053
:109180000AB0BDE8F0811A6A002AD1D01A6A002A12
:10919000F9D1CDE703691A7B2AB35B691BB390F859
:1091A000983003B390F84C31D0F89C20C4F8A40058
:1091B00063F07F03137090F84C1190F84D31D0F8A4
:1091C000A0200C48C4F804015B1A07330121C4F83D
:1091D000FC30D4F89C3084F800110A44C4E93D32D4
:1091E00084F8DC1074E7022384F8DC3070E700BFF9
:1091F000E8B507088D8000082DE9F04190F8DC30D3
:10920000D0F8A060012B8AB0044641D015D8D0F820
:109210009C3000221A605A609A609A81D0F8E0303F
:109220000522B3F57A7FC0F8F02048D8032380F8F0
:10923000DC3001200AB0BDE8F081023B012B33D8BD
:10924000D0F89C30304D8C225A70D0F89C3003F10D
:10925000010ED0F8A03000F110085F1C0FCDEC46D5
:10926000ACE80F000FCDACE80F0095E803008CE8E8
:10927000030069464046CDE900E71EF0EDFB236997
:109280005A6A12B1904513D0FEE71A6A002AFCD13F
:10929000B6F90230A4F8D030B6F90430A4F8D230D0
:1092A000B6F90630A4F8D43001200AB0BDE8F08148
:1092B0001A6A002AECD01A6A002AF9D1E8E7036991
:1092C0001A7BE2B15B69D3B190F89830BBB1D0F8AA
:1092D0009C30C4F8A4008C225A70D0E927230121C5
:1092E0000A48C4F804010D250A440B44C4E93D238F
:1092F000C4F8FC5084F8001184F8DC10D4E7022391
:1093000084F8DC30D0E700BFE8B5070865880008BE
:109310002DE9F04190F81E31032B92B0044650D055
:1093200090F8DC00D4F8A070012800F0E28016D894
:10933000D4F89C3000221A605A609A609A81D4F85E
:10934000E0300522B3F57A7FC4F8F0202CD801254F
:109350000323284684F8DC3012B0BDE8F0810238DF
:10936000012829D8D4F89C30804E92221A700FCE52
:1093700002AD0FC50FCE0FC596E80300D4F89C30A0
:1093800004F1100885E80300029302A9D4F8A03084
:10939000039340461EF060FB23695A6A002A00F0DE
:1093A0008F80904578D0FEE723691A7B002A40F031
:1093B000B980022384F8DC300125284612B0BDE8CC
:1093C000F0810023CDE90633CDE9083368490B93DA
:1093D00000F11006674B02910122039302A90A23B0
:1093E00030468DF814208DF8282004931EF034FBAD
:1093F00023695A6A002A48D0964200D0FEE71A6ACA
:10940000002AFCD15C4AB2F86635052B5FDDB2F963
:109410006815D2F86805B2F96A55B2F96C2511F5EC
:10942000004F77D0C4F8D000A4F8D4200125063B23
:10943000002BC2D07E238DF80630B0238DF8073084
:109440000DF106030293002303938DF81430069365
:1094500008930B930E9310930123049309938DF8B3
:1094600028308DF83C300DF107030022079302A944
:1094700000233046CDE90C231EF0EEFA23695A6A28
:10948000002A2ED0964224D0FEE71A6A002AB9D0CC
:109490001A6A002AF9D1B5E71A6A002AFCD1B7F98D
:1094A0000230A4F8D030B7F90430A4F8D230B7F9BC
:1094B0000630A4F8D4300125284612B0BDE8F0816A
:1094C0001A6A002AEBD01A6A002AF9D1E7E70025C8
:1094D000AEE71A6A002A3FF470AF1A6A002AF8D180
:1094E0006BE71A6A002A3FF468AF1A6A002AF8D1BB
:1094F00063E7B7F90830A4F8D030B7F90A30A4F818
:10950000D230B7F90C30A4F8D4300546284612B052
:10951000BDE8F08115F5004F84D112F5004F81D1DF
:10952000002584E75B69002B3FF443AF94F8985023
:10953000002D3FF43EAFD4F89C30C4F8A4408C22F8
:109540001A70D4F8A020C4F8F8200E2201230B4989
:10955000C4F8FC20D4F89C20C4F80411C4F8F4200A
:1095600084F8003184F8DC3027E700BF10B6070824
:109570008801002094230020301E002091880008DC
:1095800070B5104ED6F80835002B19DD06F581644C
:10959000002505E0D6F80835AB4204F120040FDDC4
:1095A000237F0135002BF5D0E0680028F2D0217D23
:1095B0001FF014FBD6F80835AB4204F12004EFDCB1
:1095C000012070BD04000010F8B5037D85691F2BD4
:1095D00004464DD90168A3F120024E682020904036
:1095E000064234D010239340C860CB604B68D34010
:1095F000DE0700F18380EFF31183502282F312889B
:109600002A6C1168C9075AD4516889B271B9D5E971
:109610000960864250D0AF690744D76073D9301AC9
:1096200080B25060AE62002185F86410116841F08C
:109630000101DBB2116083F3118895F86430002BCF
:1096400044D1237D1F2B27D92168A3F120024C6828
:1096500008209040044200D0C8604C68042000FA02
:1096600002F2224203D0203B00FA03F3CB60F8BDA4
:109670000268202016689840064219460ED0102134
:109680009940906091601168D940C807B3D5012115
:1096900001FA03F39360AEE72268194610680823C5
:1096A0008B40184200D093601068042303FA01F144
:1096B0000142DCD09160F8BD012285F86420DBB264
:1096C00083F3118895F86430002BBAD095F87C307C
:1096D000002BB6D195F871001FF03CFA2A6E9389E1
:1096E00023F008031B0401211B0C938185F87C10D7
:1096F0000028A6D020211FF071FAA2E7012303FA67
:1097000002F2CA6077E72E69301A80B25060A9620F
:1097100089E700BF2DE9F04FBE4C94F86E2597B055
:10972000054622B902F0FF0394F8502542BB95F894
:109730002131002B40F0C6822268B74BB3EB920F69
:1097400081F00580B3EBD20F80F0FE87B3EB121FE0
:1097500081F01580B3EB521F81F00E80B3EB921FA6
:1097600081F00480B3EBD21F81F00380B3EB122FA2
:1097700034BF4FF480738023AB8217B0BDE8F08F05
:109780007E228DF8162015228DF817200DF1160275
:10979000CDE906238DF824300A930C930F9312938E
:1097A0001493012308930D938DF838308DF84C30C5
:1097B00000F110060DF1170300220B9306A90023F8
:1097C0003046CDE910231EF047F92B695A6A002A6A
:1097D00000F08B80964200D0FEE71A6A002AFCD186
:1097E000DFF838C24FF0640E4FF010084FF0E0225F
:1097F0004FF47A704FF00109AB46DCF80430C3F344
:109800000803002B40F03E82EFF31183002B40F061
:109810003982D4F858359769D4F858158B42F8D165
:10982000D4F860158F42F4D8D4F85CA500FB0AF197
:10983000C91BB1FBFAF100FB0311DCF80430C3F3E0
:109840000803002B40F0DD81EFF31183002B40F083
:10985000D881D4F858559769D4F858359D42F8D135
:10986000D4F860359F42F4D8D4F85CA500FB0AF325
:10987000DB1BB3FBFAF300FB05335B1AB3F57A7F0E
:10988000DBD3BEF1010EB8D10DF11603CDE9063ED2
:109890000DF11703CDE90B3E012308930D938DF8CD
:1098A00038308DF84C307E238DF81630112300228D
:1098B0008DF8173006A900233046CDE910238DF826
:1098C00024E0CDF828E0CDF83CE0CDF848E0CDF834
:1098D00050E01EF0C1F8DBF810305A6A5D46002AED
:1098E00000F08F80964208D0FEE71A6A002A3FF403
:1098F00077AF1A6A002AF8D172E71A6A002AFCD1F7
:109900000523DFF818E103959B464FF010084FF050
:10991000E0224FF47A704FF00109DEF80430C3F30F
:109920000803002B40F08D81EFF31183002B40F0F2
:109930008881D4F858359769D4F858158B42F8D1F6
:10994000D4F860158F42F4D8D4F85CA500FB0AF176
:10995000C91BB1FBFAF100FB0311DEF80430C3F3BD
:109960000803002B40F02F81EFF31183002B40F010
:109970002A81D4F858759569D4F858359F42F8D1A2
:10998000D4F860359D42F4D8D4F85CC500FB0CF3E4
:109990005B1BB3FBFCF300FB07335B1AB3F57A7F69
:1099A000DBD35B46013B9B46B7D10DF11603069313
:1099B0000123039D08930DF117020D938DF83830A4
:1099C0008DF84C3083230C928DF816300022002342
:1099D00006A93046CDE91023CDE90ABBCDF81CB06D
:1099E0008DF824B0CDF83CB0CDF848B0CDF850B0EB
:1099F0001EF032F82B695A6A002A47D096420FD0DF
:109A0000FEE71A6A002A3FF47BAF1A6A002AF8D1EF
:109A100076E700BF301E00208096980000ED00E041
:109A20001A6A002AFCD19DF8173003F03C03142B6E
:109A30007FF47DAE0DF1160306930DF117030B9322
:109A4000002307938DF824300A930C930F931293FD
:109A50001493012308930D938DF838308DF84C3012
:109A600040238DF816301B2300228DF8173006A9ED
:109A700000233046CDE910231DF0EEFF2B695A6A12
:109A8000002A00F09880964207D0FEE71A6A002A62
:109A9000C9D01A6A002AF9D1C5E71A6A002AFCD18E
:109AA000A44B5B68C3F30803002B40F0C684EFF3BC
:109AB0001183002B40F0C1844FF0E020D4F85835DA
:109AC0008169D4F858259342F8D1D4F860259142A1
:109AD000F4D8D4F85C05DFF85CE24FF47A7202FB4C
:109AE00000F77F1A4FF47A7CB7FBF0F74FF0E021D4
:109AF00002FB03774FF010094FF00108DEF8043045
:109B0000C3F30803002B40F06185EFF31183002BB2
:109B100040F05C85D4F858358869D4F858259342CC
:109B2000F8D1D4F860259042F4D8D4F85CA50CFBA9
:109B30000AF2121AB2FBFAF20CFB0323DB1BB3F599
:109B40007A7FDBD394F87135013BDBB2022B00F254
:109B50005B85794A134493F8503043F00D038DF838
:109B600017300DF1160306930DF117030B93002325
:109B700007938DF824300A930C930F931293149348
:109B8000012308930D938DF838308DF84C30422323
:109B900000228DF8163006A900233046CDE91023A7
:109BA0001DF05AFF2B695A6A002A00F04E81964236
:109BB00000F0CA80FEE71A6A002A3FF471AF1A6A01
:109BC000002AF8D16CE7EFF3118588F312889769C2
:109BD0001369DB0344BFC4F854959769D4F858C59A
:109BE000D4F85435EDB285F3118803EB0C05D4F8A5
:109BF0005CC500FB0CF3DB1BB3FBFCF300FB053384
:109C0000CBE6EFF3118788F31288D2F818A0136916
:109C1000DD0344BFC4F85495D2F818A0D4F85835E1
:109C2000D4F85455FFB287F31188D4F85C751D44FD
:109C300000FB07F3A3EB0A03B3FBF7F300FB0533C9
:109C40001BE6EFF3118C88F31288D2F818A0136981
:109C5000D90344BFC4F85495D2F818A0D4F85835A5
:109C6000D4F854155FFA8CFC8CF31188D4F85C7529
:109C70000B4400FB07F1A1EB0A01B1FBF7F100FB7C
:109C800003116AE6EFF3118788F31288D2F818A05F
:109C90001369DB0344BFC4F85495D2F818A0D4F874
:109CA0005835D4F85415FFB287F31188D4F85C7591
:109CB0000B4400FB07F1A1EB0A01B1FBF7F100FB3C
:109CC0000311BAE51E09013E052E03F00F0300F251
:109CD0004185194F07EB4602B2F8540040FA03F2EF
:109CE000D20740F13785012202FA03F3013B184005
:109CF0003E446FF0ADFC96F86030104E104A1844A8
:109D000006EBC00629462623F380002341F80C2FDA
:109D100030460093F0221FF07FF9B2884FF00043E5
:109D2000B2FA82F2D3403FF407AD06490A68134302
:109D30000B6001E500ED00E0E8B50708C423002052
:109D4000358B0008003C01401A6A002AFCD1874B81
:109D50005B68C3F30803002B40F05984EFF31183D1
:109D6000002B40F054844FF0E020D4F8583581693E
:109D7000D4F858259342F8D1D4F860259142F4D80C
:109D8000D4F85C05DFF8E4E14FF47A7202FB00F7E7
:109D90007F1A4FF47A7CB7FBF0F74FF0E02102FB1B
:109DA00003774FF010094FF00108DEF80430C3F3D9
:109DB0000803002B40F0ED83EFF31183002B40F0FC
:109DC000E883D4F858358869D4F858259342F8D1F7
:109DD000D4F860259042F4D8D4F85CA50CFB0AF2C4
:109DE000121AB2FBFAF20CFB0323DB1BB3F57A7FEA
:109DF000DBD30DF1160306930DF117030B9300232C
:109E000007938DF824300A930C930F9312931493B5
:109E1000012308930D938DF838308DF84C30412391
:109E20008DF81630082300228DF8173006A900237C
:109E30003046CDE910231DF00FFE2B695A6A002A27
:109E400000F08B80964208D0FEE71A6A002A3FF4A1
:109E50007EAF1A6A002AF8D179E71A6A002AFCD183
:109E6000424B5B68C3F30803002B40F00184EFF31F
:109E70001183002B40F0FC834FF0E020D4F85835DC
:109E80008169D4F858259342F8D1D4F860259142DD
:109E9000F4D8D4F85C05DFF8D4E04FF47A7202FB12
:109EA00000F77F1A4FF47A7CB7FBF0F74FF0E02110
:109EB00002FB03774FF010094FF00108DEF8043081
:109EC000C3F30803002B40F04783EFF31183002B0B
:109ED00040F04283D4F858358869D4F85825934225
:109EE000F8D1D4F860259042F4D8D4F85CA50CFBE6
:109EF0000AF2121AB2FBFAF20CFB0323DB1BB3F5D6
:109F00007A7FDBD30DF1160306930DF117030B9344
:109F100000238DF8173007938DF824300A930C93A3
:109F20000F9312931493012308930D938DF83830F7
:109F30008DF84C30432300228DF8163006A90023FB
:109F40003046CDE910231DF087FD2B695A6A002A9F
:109F500000F08B8096420BD0FEE71A6A002A3FF48D
:109F60007FAF1A6A002AF8D17AE700BF00ED00E05F
:109F70001A6A002AFCD1B84B5B68C3F30803002BB4
:109F800040F05E83EFF31183002B40F059834FF0D4
:109F9000E020D4F858358169D4F858259342F8D197
:109FA000D4F860259142F4D8D4F85C05DFF8A8E233
:109FB0004FF47A7202FB00F77F1A4FF47A7CB7FBFA
:109FC000F0F74FF0E02102FB03774FF010094FF05C
:109FD0000108DEF80430C3F30803002B40F09D8233
:109FE000EFF31183002B40F09882D4F8583588693C
:109FF000D4F858259342F8D1D4F860259042F4D88B
:10A00000D4F85CA50CFB0AF2121AB2FBFAF20CFBB4
:10A010000323DB1BB3F57A7FDBD30DF11603069325
:10A020000DF117030C930023CDE90A3307938DF844
:10A0300024300F9312931493012308930D938DF8FA
:10A0400038308DF84C30F72300228DF8163006A9F1
:10A0500000233046CDE910231DF0FEFC2B695A6A1F
:10A06000002A3AD0964207D0FEE71A6A002A82D028
:10A070001A6A002AF9D17EE71A6A002AFCD10DF18A
:10A08000160306930DF117030B939DF8173063F039
:10A090003F038DF81730002307938DF824300A937F
:10A0A0000C930F9312931493012308930D938DF83F
:10A0B00038308DF84C30772300228DF8163006A901
:10A0C00000233046CDE910231DF0C6FC2B695A6AE7
:10A0D000002A38D0964207D0FEE71A6A002ACED06E
:10A0E0001A6A002AF9D1CAE71A6A002AFCD10DF1CE
:10A0F000160306930DF117030B93002307938DF8B6
:10A1000024300A930C930F93129314930123089312
:10A110000D938DF838308DF84C3051238DF8163072
:10A12000102300228DF8173006A900233046CDE910
:10A1300010231DF091FC2B695A6A002A00F08E80D2
:10A14000964207D0FEE71A6A002AD0D01A6A002A7F
:10A15000F9D1CCE71A6A002AFCD13F4B5B68C3F304
:10A160000803002B40F0B582EFF31183002B40F081
:10A17000B0824FF0E020D4F858358169D4F85825E2
:10A180009342F8D1D4F860259142F4D8D4F85C0514
:10A19000DFF8C4E04FF47A7202FB00F77F1A4FF445
:10A1A0007A7CB7FBF0F74FF0E02102FB03774FF02A
:10A1B00010094FF00108DEF80430C3F30803002B48
:10A1C00040F07181EFF31183002B40F06C81D4F8E3
:10A1D00058258869D4F858359342F8D1D4F86025C9
:10A1E0008242F4D3D4F85CA50CFB0AF2121AB2FB3B
:10A1F000FAF20CFB0323DB1BB3F57A7FDBD30DF103
:10A20000160306930DF117030B93002307938DF8A4
:10A2100024300A930C930F93129314930123089301
:10A220000D938DF838308DF84C3053238DF816305F
:10A230000A2300228DF8173006A900233046CDE905
:10A2400010231DF009FC2B695A6A002A00F08E8049
:10A2500096420BD0FEE700BF00ED00E01A6A002A2C
:10A260003FF47BAF1A6A002AF8D176E71A6A002A0F
:10A27000FCD1B84B5B68C3F30803002B40F011829C
:10A28000EFF31183002B40F00C824FF0E020D4F864
:10A2900058358169D4F858259342F8D1D4F860250F
:10A2A0009142F4D8D4F85C05DFF8A8E24FF47A7252
:10A2B00002FB00F77F1A4FF47A7CB7FBF0F74FF000
:10A2C000E02102FB03774FF010094FF00108DEF8A0
:10A2D0000430C3F30803002B40F0C880EFF3118370
:10A2E000002B40F0C380D4F858258869D4F858353D
:10A2F0009342F8D1D4F860259042F4D8D4F85CA504
:10A300000CFB0AF2121AB2FBFAF20CFB0323DB1B62
:10A31000B3F57A7FDBD30DF1160306930DF1170326
:10A320000B93002307938DF824300A930C930F931B
:10A3300012931493012308930D938DF838308DF800
:10A340004C3056238DF81630802300228DF81730BC
:10A3500006A900233046CDE910231DF07DFB2B69B3
:10A360005A6A002A62D0964208D0FEE71A6A002A8A
:10A370003FF47FAF1A6A002AF8D17AE71A6A002AF6
:10A38000FCD1744B5B68C3F30803002B40F0B98128
:10A39000EFF31183002B40F0B4814FF0E020D4F8AC
:10A3A00058358169D4F858259342F8D1D4F86025FE
:10A3B0008A42F4D3D4F85C054FF47A7202FB00F6BB
:10A3C000761AB6FBF0F602FB0366DFF888C14FF0A1
:10A3D000E0204FF47A774FF010084FF0010EDCF8D0
:10A3E0000430C3F30803002B7AD1EFF31183002B61
:10A3F00076D1D4F858358169D4F858259342F8D1EC
:10A40000D4F860258A42F4D3D4F85C9507FB09F2AE
:10A41000521AB2FBF9F207FB03239B1BB3F57A7FB9
:10A42000DDD3012384F86E35FFF781B91A6A002A5B
:10A43000A7D01A6A002AF9D1A3E7EFF311821023FB
:10A4400083F312884FF0E02399691869C00303D59C
:10A450000121C4F854159969D4F85875D4F85435C5
:10A46000D2B282F311883B44FFF733BBEFF3118381
:10A4700089F3128888690A69D20302D5C4F8548521
:10A480008869D4F85825D4F854A5DBB283F3118831
:10A490005244D4F85CA50CFB0AF31B1AB3FBFAF385
:10A4A0000CFB023333E7EFF3118389F312888869D9
:10A4B0000A69D20302D5C4F854858869D4F85825AE
:10A4C000D4F854A5DBB283F311885244D4F85CA5C8
:10A4D0000CFB0AF31B1AB3FBFAF30CFB02338AE6FC
:10A4E000EFF3118388F3128881690269D20302D5E0
:10A4F000C4F854E58169D4F85895D4F85425DBB2F2
:10A5000083F311884A44D4F85C9507FB09F35B1A7E
:10A51000B3FBF9F307FB02337FE7EFF3118389F312
:10A52000128888690A69D20302D5C4F854858869FB
:10A53000D4F85825D4F854A5DBB283F311885244DB
:10A54000D4F85CA50CFB0AF31B1AB3FBFAF30CFB63
:10A5500002335EE500ED00E0EFF3118389F312882A
:10A5600088690A69D20302D5C4F854858869D4F889
:10A570005825D4F854A5DBB283F311885244D4F89B
:10A580005CA50CFB0AF31B1AB3FBFAF30CFB0233BA
:10A59000B4E4EFF3118389F3128888690A69D2035E
:10A5A00002D5C4F854858869D4F85825D4F854A540
:10A5B000DBB283F311885244D4F85CA50CFB0AF398
:10A5C0001B1AB3FBFAF30CFB02330EE4EFF3118317
:10A5D00089F3128888690A69D20302D5C4F85485C0
:10A5E0008869D4F85825D4F854A5DBB283F31188D0
:10A5F0005244D4F85CA50CFB0AF31B1AB3FBFAF324
:10A600000CFB0233FFF79ABA0D23FFF7A8BAEFF35A
:10A610001182102383F312884FF0E023996918699F
:10A62000C00303D50121C4F854159969D4F85875AD
:10A63000D4F85435D2B282F311883B44FFF7A0BB63
:10A64000EFF31182102383F312884FF0E02399690E
:10A650001869C00303D50121C4F854159969D4F8C9
:10A660005875D4F85435D2B282F311883B449BE438
:10A67000EFF31182102383F312884FF0E0239969DE
:10A680001869C00303D50121C4F854159969D4F899
:10A690005875D4F85435D2B282F311883B44FFF791
:10A6A000F8BBEFF31182102383F312884FF0E023FD
:10A6B00099691869C00303D50121C4F85415996933
:10A6C000D4F85875D4F85435D2B282F311883B448B
:10A6D000E8E5EFF31182102383F312884FF0E023B3
:10A6E00099691869C00303D50121C4F85415996903
:10A6F000D4F85875D4F85435D2B282F311883B445B
:10A7000044E5EFF31182102383F312884FF0E02326
:10A7100099691869C00303D50121C4F854159969D2
:10A72000D4F85835D4F85465D2B282F31188D4F8ED
:10A730005C054FF47A721E4402FB00F35B1AB3FB14
:10A74000F0F302FB063640E60423FFF715B80223B8
:10A75000FFF712B829460B4B41F80C3F002300933A
:10A760001846F0221EF058FCFEF7E6BF2023FFF744
:10A7700003B84023FFF700B81023FEF7FDBF0823FE
:10A78000FEF7FABF358B0008B84B1B780BB90120D8
:10A7900070472DE9F04FB64DB649D5F85825B64B60
:10A7A000A1FB02125209A3FB023A4FEADA0A0AEBB2
:10A7B0008A0AA2EB4A0A85B0AC4A5FFA8AF303938D
:10A7C00002F2EC7302F20C570193002307EB8A0AA2
:10A7D00002F581699846A54BD3F80835434540F307
:10A7E0001081D9F81830D9F80460D3E93A340293CB
:10A7F0001FF0C2FA029B95F846C502904FEA860EFA
:10A8000095F894080EF1085E04F180610EEB431E8A
:10A810003939BCF14F0F0EEB81110EEB801301D1D2
:10A82000A5F84E05994240F262811A68002A00F0AC
:10A8300056811A6C002A00F06881D3F88020002A23
:10A8400000F06581D3F8C02003F58073002AE9D1B8
:10A85000A3EB0E0E99424FEAAE1E40F24881A4EBE4
:10A860000E0145294FF0000428BF452103EB81115B
:10A870009B46204626460DE01A6C002A40F0C9800F
:10A88000D3F88020002A40F0EF80D3F8C02003F5F1
:10A8900080732AB9994206D91A68002AECD040334D
:10A8A000994200F2BA80112E344640F22481D6F14A
:10A8B000150200F120817149029ECB689E45D5F8B2
:10A8C000983838BFC1F80CE0F11A002917DB03F5FE
:10A8D000F42303F590739E4288BF029B674988BFAB
:10A8E0000533C5F89838654BDB68052B86BF053BFB
:10A8F000DBB2002385F894384FF0FF33CB6042B1D0
:10A9000000FA02F2C4F11404012000FA04F444EA4B
:10A9100002005B4BC0F3C43203EB8202916E00F085
:10A920001F0203EB8202926E42EA0131C0F344122D
:10A9300003EB8202C0F3842003EB8000936E41EAB4
:10A940000311836E41EA032181EA112383EA131381
:10A9500003F00F030F2B40F0B080B1F5803F80F083
:10A96000AC80BCF14F0F4FEA111104D1B5F8483556
:10A970000133A5F848353D4AD2F8F437B1F5606F98
:10A9800003F10103C2F8F43700F0D380019B9981F1
:10A9900097F858300398834210D0DAF808203B68C3
:10A9A0009B1A3B60DAF830207B689B1A7B6000239F
:10A9B000CAF80830CAF8303087F858003B680133CD
:10A9C0003B60DAF808300133CAF808304FF6FF73FD
:10A9D000994207D17B6801337B60DAF8303001336C
:10A9E000CAF83030019B08F101081433B8F1080FA0
:10A9F00007F15C070AF15C0A019309F120097FF471
:10AA0000EAAE1A4A0123012082F8F23805B0BDE807
:10AA1000F08F803399427FF646AF5A469A1A9211C8
:10AA2000541C184A82FB04B2A2EBE472012AB8BF9C
:10AA30000122904001241644013A04FA02F2104324
:10AA40001C46226802B3226C002A62D0D4F880200F
:10AA5000002A60D0D4F8C02004F58074AAB1A142C5
:10AA6000EFD89B46234615E7C03319E704000010D2
:10AA7000301E00201F85EB51CDCCCCCC88010020AE
:10AA8000E8B50708565555554034A142E9D9E31AAF
:10AA90009B115A1C2F4B83FB02B3A3EBE273012BD8
:10AAA000B8BF012398401E440122013B02FA03F380
:10AAB000184323469B462346ECE6BCF14F0F2CD0AF
:10AAC000254AD2F8F4370133C2F8F437224AD2F8D3
:10AAD000F0370133C2F8F0374FF6FF7158E74033D3
:10AAE000A3EB0E0E99424FEAAE1E3FF6B8AE10B180
:10AAF000013885F89408BCF14F0F7FF473AFB5F8B7
:10AB00004A350133A5F84A356CE78033A0E6C033F7
:10AB10009EE68034B9E7C034B7E7B5F848350E4A49
:10AB20000133A5F84835D2F8F4370133C2F8F437C9
:10AB3000CCE795F8E13403EB430305EBC30343444F
:10AB400093F8F1340D2B7FF421AF019A8023937792
:10AB50001EE700BF565555550400001010B50446B9
:10AB600070F014F881B22046BDE81040FDF704BD36
:10AB70002DE9F0411E4B93F8E02493F8E1349A421A
:10AB80002FD11C4F7D68002D12DD3846002410F8AF
:10AB9000086BA046013416B1037E012B1CD002695C
:10ABA0001368AC4243F0010300F580701360F1D1EB
:10ABB0001FF0E2F8D7F8F448002C0BDD0E4A02EB48
:10ABC000C404116893888889083203439BB2944275
:10ABD0008B81F6D1BDE8F08180F8F080FDF76EFD45
:10ABE000DDE76AF029FB0028CBD1BDE8F08100BF8A
:10ABF000301E002004000010FC08001010B57D4C31
:10AC000094F8E02494F8E1349A4240F099817A4B28
:10AC100093F81829002A00F0EC8093F81C39002BD7
:10AC200040F0EC80D4F89C18088820F080000004E4
:10AC3000000C0880B4F8A008C862088880B240F010
:10AC4000800008804B62B1F80CC0B4F8B00840EA4C
:10AC50000C0080B2012A8881A4F8B03800F0C980C5
:10AC6000D4F8B418088820F080000004000C088094
:10AC7000B4F8B808C862088880B240F08000088044
:10AC80004B62B1F80CC0B4F8C80840EA0C0080B2BE
:10AC9000022A8881A4F8C83800F0AB80D4F8CC1818
:10ACA000088820F080000004000C0880B4F8D00868
:10ACB000C862088880B240F0800008804B62B1F81A
:10ACC0000CC0B4F8E00840EA0C0080B2032A888186
:10ACD000A4F8E03800F08D80D4F8E418088820F05B
:10ACE00080000004000C0880B4F8E808C8620888F6
:10ACF00080B240F0800008804B62B1F80CC0B4F81C
:10AD0000F80840EA0C0080B2042A8881A4F8F838D8
:10AD10006FD0D4F8FC18088820F080000004000CE4
:10AD20000880B4F80009C862088880B240F080004A
:10AD300008804B62B1F80CC0B4F8100940EA0C006E
:10AD400080B2052A8881A4F8103952D0D4F8141999
:10AD5000088820F080000004000C0880B4F818096E
:10AD6000C862088880B240F0800008804B62B1F869
:10AD70000CC0B4F8280940EA0C0080B2062A888189
:10AD8000A4F8283935D0D4F82C19088820F0800090
:10AD90000004000C0880B4F83009C862088880B24A
:10ADA00040F0800008804B62B1F80CC0B4F8400954
:10ADB00040EA0C0080B2072A8881A4F8403918D0F4
:10ADC000D4F84429B4F84809118821F08001090415
:10ADD000090C1180D0621088B4F8581980B240F084
:10ADE0008000108053629089014389B29181A4F858
:10ADF000583910BD301E002004000010D4F8A438CB
:10AE0000B4F8A81859601968D4F89C0841F00101F9
:10AE1000196040F20D33A0F84830818989B241F4BD
:10AE20008071012A8181E4D0D4F8BC18B4F8C0083C
:10AE30004860086840F001000860D4F8B408A0F841
:10AE40004830818989B241F48071022A8181D0D051
:10AE5000D4F8D418B4F8D8084860086840F0010065
:10AE60000860D4F8CC08A0F84830818989B241F450
:10AE70008071032A8181BCD0D4F8EC18B4F8F008B2
:10AE80004860086840F001000860D4F8E408A0F8C1
:10AE90004830818989B241F48071042A8181A8D027
:10AEA000D4F80419B4F808094860086840F00100B3
:10AEB0000860D4F8FC08A0F84830818989B241F4D0
:10AEC0008071052A818194D0D4F81C19B4F8200926
:10AED0004860086840F001000860D4F81409A0F840
:10AEE0004830818989B241F48071062A818180D0FD
:10AEF000D4F83419B4F838094860086840F0010003
:10AF00000860D4F82C09A0F84830818989B241F44E
:10AF10008071072A81813FF46CAFD4F84C19B4F8E2
:10AF200050294A600868D4F8442940F001000860BC
:10AF3000A2F8483093899BB243F48073938110BD8B
:10AF40006AF07AF900287FF462AE10BDF8B590F887
:10AF500071301C09013C052C0FD81B4E06EB440236
:10AF60000546B2F8540003F00F0340FA03F2D2078B
:10AF700003D595F87C70012F01D00120F8BD07FAA8
:10AF800003F3013B184034446EF062FB94F86020F8
:10AF90000E4C104454F8302004EBC0041069A38810
:10AFA0001840EBD0EB6E002285F87C2093F821202E
:10AFB000204602211DF03AFB2A6E93899BB243F092
:10AFC000080338469381F8BDE8B50708C42300207C
:10AFD0002DE9F047037D01681F2B044608D9486816
:10AFE000A3F120052022AA40024206D1BDE8F08745
:10AFF000086820229A400242F8D0604A604E5268A7
:10B00000C6F8202996F81C29A569DFF880910ABBAB
:10B010008C2202FB0592D2F88800D2F80071D0F899
:10B0200000803868B2F88CC020F001003860B8F8B1
:10B030000C2092B222EA0C02A8F80C20327802BB53
:10B040001F2B40F29080A3F1200220239340CB607D
:10B05000BDE8F0878C2202FB0592D2F88820506967
:10B06000D2F80080026822F001020260B8F80C20D9
:10B0700022F480721204120CA8F80C203278002AF4
:10B08000DED04FF08C0A0AFB059ADAF800713846D8
:10B0900063F0D0F8D6F8283901228AF8D420002BA2
:10B0A00067D0B8F8003037499BB243F08003A8F866
:10B0B00000308C2303FB05F54FF0FF332944C8F81B
:10B0C0002C30404663F020FB09EB05030022D3F847
:10B0D000AC00C3F8A420D3F8982039680243D3F811
:10B0E000B0000243D3F8B4000243D3F8B8000243DF
:10B0F000D3F8BC000243D3F8C0000243D3F8CC001D
:10B100000243D3F8D00002431F48084002433A608C
:10B11000D3E931207969024321F007010A437A61BA
:10B12000D3F8A8207A60D3F89C20BA60D3F8A02086
:10B13000FA60D3F8002116215160116841F0010135
:10B140001160D3F88820B3F88C30126891890B43D2
:10B150009BB20A4993814B68C6F82439237D216844
:10B160001F2B3FF670AF202202FA03F38B60BDE87D
:10B17000F0871EF001FEC6F8280992E7001000E0F3
:10B1800004000010241F00203F801CF0301E00200F
:10B190002DE9F04FDFF80CB19BF8004087B024B9DF
:10B1A0000124204607B0BDE8F08F3B4ED6F8585535
:10B1B0001EF0E2FD9BF860390390002B00F0DE8268
:10B1C000364AA2FB0532364B5209A3FB0213DB08B9
:10B1D00003EB8303A2EB4303DAB204920BF20C52AB
:10B1E00002EB830300930BF2EC73019206F1E0048F
:10B1F00002930027DBF82839039AD31A04D454F8B1
:10B20000082C9342C0F26A82234A54F858AC256A4B
:10B21000DAF800608C2303FB072393F8D430002B6B
:10B2200040F09681284663F005F81B4A8C2303FB07
:10B230000723002283F8D4209AF805100C2914D88B
:10B24000DFE811F0780113001300130071011300FF
:10B25000130013007F011300130013000D00B38BC4
:10B2600023F400631B041B0CB3832246304620F0FA
:10B27000DDF99AF805300C2B1ED8DFE813F04B01EE
:10B280001D001D001D0042011D001D001D00390193
:10B290001D001D001D001500301E00201F85EB51F4
:10B2A000CDCCCCCC04000010B38B23F400631B0482
:10B2B0001B0C43F40063B383019B54F8342C54F803
:10B2C000101C5C330193009B5C330093029B14338E
:10B2D000029354F8483C43F04003134354F8302C95
:10B2E000134354F82C2C134354F8282C134354F8CC
:10B2F000242C134354F8202C1343402244F83C2CB4
:10B3000054F8142C13432A6822F07E6222F45F3230
:10B3100022F470720B4313432B6054E907316A69BE
:10B320000B4322F0070213436B6154F8383C6B6007
:10B3300054F8443CAB6054F8403CEB602B6843F05D
:10B3400010032B609BF8603901379F4204F18C0495
:10B35000FFF650AF012200218BF8F228CBF8281914
:10B36000002B3FF41DAF9D4890F89010890700F125
:10B37000A081D0F88810086849798A40018C92B27F
:10B3800089B221EA02010184018C89B20A43012BAE
:10B3900002843FF405AF914991F81C21970700F111
:10B3A000A281D1F8142110685479018C012289B24C
:10B3B000A24092B221EA02010184018C89B20A43BF
:10B3C000022B02843FF4ECAE844991F8A821960741
:10B3D00000F1A281D1F8A02110685479018C0122DA
:10B3E00089B2A24092B221EA02010184018C89B2A1
:10B3F0000A43032B02843FF4D3AE784991F83422F8
:10B40000950700F19281D1F82C2210685479018CB3
:10B41000012289B2A24092B221EA02010184018C88
:10B4200089B20A43042B02843FF4BAAE6B4991F807
:10B43000C022940700F18281D1F8B82210685479B3
:10B44000018C012289B2A24092B221EA0201018458
:10B45000018C89B20A43052B02843FF4A1AE5F49F7
:10B4600091F84C23900700F17281D1F844231068C1
:10B470005479018C012289B2A24092B221EA0201E0
:10B480000184018C89B20A43062B02843FF488AE02
:10B49000524991F8D823920700F16281D1F8D02364
:10B4A00010685479018C012289B2A24092B221EA3B
:10B4B00002010184018C89B20A43082B02847FF4C3
:10B4C0006FAE464A92F864349B0740F15281D2F83D
:10B4D0005C240423116850790A8C83409BB292B299
:10B4E00022EA03020A840A8C92B213430B8457E6C1
:10B4F000B38B23F008031B041B0C43F00803B38336
:10B50000DAE6338B23F400631B041B0C43F4006363
:10B510003383D1E6338B23F008031B041B0C43F069
:10B5200008033383C8E6338B23F400631B041B0C2E
:10B5300033839AE6338B23F008031B041B0C3383FD
:10B5400093E6B38B23F008031B041B0CB3838CE638
:10B550006B6834F8542C1FFA83F8B389C8F11608C5
:10B560009BB223EA0203B8F1070FB3817FF65AAE0C
:10B57000DBF8F4370133CBF8F437A36A05939E4622
:10B5800000225EF804CB0121914660461DE0DEF802
:10B5900000C0B9F1140FACEB000321DC13F108007B
:10B5A00048BF03F11700031109EB2019604603F1AE
:10B5B000FF3C013102FA03F3012202FA0CF2884542
:10B5C00042EA03020EF1040E0AD38845DFD8C9F11E
:10B5D0001503DEF800004FF01509E8E7301E0020E3
:10B5E000B9F1150F5CD16848C2F38423C2F344114A
:10B5F00000EB830300EB8101D3F8E830D1F8E810C9
:10B600001B0243EA011302F01F0100EB8101C2F3A8
:10B61000C43200EB8202D1F8E810D2F8E8200B43E4
:10B6200043EA023383EA132282EA121202F00F0283
:10B630000F2A35D1C3F30F134FF6FF7293422FD069
:10B64000B3F5606F58D0029A93810198049990F8ED
:10B6500058208A4210D0009A91680268521A0099C4
:10B660000260096B4268521A0099426000228A60A7
:10B670000A63049980F85810019900980A68013209
:10B680000A608268013282604FF6FF7293427FF453
:10B69000C9AD4B6801334B60036B01330363C1E5F4
:10B6A000DBF8F0370133CBF8F0376FB14FF6FF73AB
:10B6B000CBE7364AD2F8882010685479018C0422EE
:10B6C000A24089B292B25CE60599314858226FF0E7
:10B6D000D5FEDAF800604FF6FF73B6E70024204687
:10B6E00007B0BDE8F08F294AD2F8142110685479C8
:10B6F000018C042289B25BE6244991F8E12402EB33
:10B70000420201EBC2023A4492F8F1240D2A9AD186
:10B71000029980228A7798E71C4AD2F8A021106803
:10B720005479018C042289B25BE6184AD2F82C22A3
:10B7300010685479018C042289B26BE6134AD2F85E
:10B74000B82210685479018C042289B27BE60F4A32
:10B75000D2F8442310685479018C042289B28BE614
:10B760000A4AD2F8D02310685479018C042289B295
:10B770009BE6064BD3F85C240123ABE601228BF851
:10B78000F228CBF828390CE5E8B50708301E002070
:10B790009C080010BFF34F8F0549064BCA6802F49E
:10B7A000E0621343CB60BFF34F8F00BFFDE700BFE4
:10B7B00000ED00E00400FA051648174A174938B5AD
:10B7C000174C184D121A6FF059FED4F88820164BFA
:10B7D000164842F47002C4F888201A68002142F02A
:10B7E00001021A6099601A6822F0847222F4803291
:10B7F0001A6058601A6822F480221A600C4AD960D4
:10B80000521B28460B496FF039FEA560BDE8384051
:10B81000FCF7F6BB00000010040000109F0A0908A6
:10B8200000ED00E00000002000380240103000244D
:10B8300088010020000000082DE9F843044690F834
:10B84000210144F23B33A4F84C3108B9BDE8F88338
:10B850000509013D052D00F00F0000F29B804F4FC0
:10B8600007EB4503B3F8542042FA00F3DB0740F13D
:10B870009180012303FA00F0013810403D446DF03F
:10B88000E7FE474E95F86080464A804406F2945998
:10B8900009EBC8052621AB88E980B3FA83F3202B96
:10B8A000E260C3F11F02D1D0174406EB82020C34D0
:10B8B000C2F85C494FF0004232FA03F397F868414E
:10B8C00005D0394A116821EA030111605361002152
:10B8D00028461DF083F9AB8859F83820B3FA83F372
:10B8E000C3F11F0000F0FC0101F1804101F59C3122
:10B8F00002F13F4202F57E0200F003008F688000F3
:10B90000C2F387224FF00F0C82400CFA00F027EAB6
:10B9100000008860886802438A60234A23491068CF
:10B920004FF0004727FA03F320EA03001060506845
:10B9300020EA03005060D1F8000C1843C1F8000C55
:10B94000906820EA03009060D06820EA0300D0608D
:10B95000D1F8082C26441A43C1F8082C96F89C29E3
:10B96000F02A08D8002B3FF471AF0F490A6813433F
:10B970000B60BDE8F883F02386F89C390C4B00225D
:10B98000185D032167F032FEAB88B3FA83F327FA20
:10B9900003F3E7E7034BE36058E700BFE8B50708A8
:10B9A000301E0020B5880008003C014000300140F6
:10B9B000044D080890F8DB30052B03D890F81E31B1
:10B9C000032B01D00020704790F8233103F0FB03D4
:10B9D000022B0CBF00200720704738B500F110047F
:10B9E0000546FFF729FF80226B2120461CF0A0F8B6
:10B9F00064201EF073FC03226B2120461CF098F893
:10BA000095F82021192120461CF092F80F201EF0F5
:10BA100065FC2846FFF7CEFF1A21024620461CF09F
:10BA200087F818221B2120461CF082F818221C21BE
:10BA300020461CF07DF80222372120461CF078F8C1
:10BA400020460122BDE8384038211CF071B8F8B515
:10BA5000054600F11004FFF7EFFE95F8D830072BEC
:10BA60005BD195F81D310226002B58D13746802234
:10BA70006B2120461CF05CF864201EF02FFC07228E
:10BA8000682120461CF054F864201EF027FC002298
:10BA90006B2120461CF04CF864201EF01FFC012294
:10BAA0006B2120461CF044F80F201EF017FCFA0012
:10BAB0001B2120461CF03CF80F201EF00FFCF2006A
:10BAC0001C2120461CF034F80F201EF007FC2846ED
:10BAD000FFF770FF1A21024620461CF029F80F20BC
:10BAE0001EF0FCFB95F82021192120461CF020F8BF
:10BAF00064201EF0F3FB1022372120461CF018F8BA
:10BB00000F201EF0EBFB2046012238211CF010F81C
:10BB1000BDE8F8400F201EF0E1BB0326A6E703278F
:10BB2000A5E700BF2DE9F04302691778012F85B022
:10BB300004460D4618D10B79013B13714B79002B4C
:10BB400008BF682300F1100803754FF000093B4659
:10BB50000DF10502752140468DF805901CF07EF828
:10BB6000064600283ED1226902231370EB7823B9E0
:10BB70000026304605B0BDE8F08304F11008A9782E
:10BB800040461BF0E1F906460028F1D0E8781CF0A9
:10BB9000E1FFA0612B780133DBB210B1C371222326
:10BBA000837109211DF0FAF9A0691BF0C7F9424A17
:10BBB000D2F85835632BFBD94048DFF80891404F45
:10BBC0001BF08CF9A08202E059F8047B5FB3404679
:10BBD000B84703460028F7D0206984F8D8306CF0C5
:10BBE00035F9C6E720696CF031F93B4649460DF15D
:10BBF000060240461CF032F89DF8063003F07E0342
:10BC00008DF8063008B1682B14D09DF8053003F08C
:10BC10007E03682B8DF805300FD0702BA9D104233B
:10BC200084F8D830A5E7E8781CF094FF1DF0D5F92A
:10BC30003E469EE784F8D8709BE70222062384F8EC
:10BC4000D820194602AA40461CF008F8E0B19DF839
:10BC50000D309DF80B209B00520002F0020203F011
:10BC6000040313439DF8092002F0010213430BD093
:10BC7000012B1DD0022B17D003F00303032B13D08D
:10BC800003201EF0E3FC74E701230DF10702404698
:10BC90000C211BF0E3FF0028F2D09DF8073013F0D1
:10BCA0000F03EDD0042B03D0012384F8D93060E7D3
:10BCB000002384F8D9305CE7301E002040420F009A
:10BCC000F302010864B7070843680B4A23F0407386
:10BCD00023F4807343F48073436083681A4042F016
:10BCE00002028260C36A0139CAB223F4700141EAD8
:10BCF0000251C162704700BFFDF7FFC0704700BF2F
:10BD00000020FCF7D5B900BF0120FCF7D1B900BF76
:10BD10000220FCF7CDB900BF431C00F044812DE99F
:10BD2000F04FDFF8CCA300EB80030AEBC30287B02F
:10BD3000D2F80480810005460191DB00B8F1000FC4
:10BD400005D0D468002C00F0FD80A17911B107B0B6
:10BD5000BDE8F08FD2F81090B9F1000F00F03B81F0
:10BD600099F80620002AF2D118330AF10406F018D7
:10BD7000D8F80470F250691CC0E901221523C26092
:10BD8000C9B2A3711623E17189F8071089F806304A
:10BD900098F8180069F042FBBB882268A18823F458
:10BDA00040731B041B0CBB80D9F800301183B9F819
:10BDB00004201A83112120461CF010FF112148464F
:10BDC0001CF00CFF09264FF0330B05E0BBF1010B13
:10BDD00000F0E3801EF046F80A20002CF6D022681E
:10BDE000A18813691942F1D0518305201EF03AF859
:10BDF0002368A2881A8305201EF034F8013EE2D1A0
:10BE0000002C00F00D812368A2885A8305201EF0C3
:10BE100029F8B9F1000F00F02B81D9F80030B9F8FA
:10BE200004205A8305201EF01DF82368A2881A8377
:10BE300005201EF017F8D9F80030B9F804201A834D
:10BE4000019B20465C190AEBC404A37D227D002BD4
:10BE500014BF322112211AF057FEA37D627D002B00
:10BE600014BF3221122148461AF04EFE9A4B9F42CF
:10BE700000F0E880994B9F4200F0EF80984B9F4282
:10BE800000F00081019B2B440AEBC30A4FF47A7344
:10BE9000BAF8184003FB04F4BB8823F440731B0476
:10BEA0001B0CBB803B889BB243F001033B80BD88E9
:10BEB00002A862F071F925F03F050498894B2D0422
:10BEC000A3FB00232D0C45EA9345BD803A8822F060
:10BED00001021204120C3A80834A990C94420B46D8
:10BEE00062DC6200B0FBF2F292B20133042A38BF86
:10BEF00004223B84BA833B889BB243F001033B801E
:10BF00003B8823F4816323F002031B041B0C4FF4D2
:10BF1000804143F480633B8039813B8823F0800378
:10BF20001B041B0C00223B8098F81A00114667F096
:10BF30005DFB002298F81900114607B0BDE8F04FEC
:10BF400067F054BBD2F81090B9F1000F00F0A58053
:10BF500099F80620002A7FF4FAAE18330AF104019A
:10BF6000CA18D8F80470CC50C2E901441623D46032
:10BF700089F806306B1C89F8073098F8180069F0CA
:10BF80004DFABB88B9F8042023F440731B041B0C42
:10BF9000BB80D9F800301A8310E7002C3DD1052072
:10BFA0001DF060FF27E7704704EB4404B0FBF4F09A
:10BFB00082B2C0F30B0008B942F001024FF496734D
:10BFC00001FB03F34949A1FB03139B09013342F42D
:10BFD00000423B848EE70AF104011833CA18D8F8EE
:10BFE000047041F80390C2E901991523C2F80C903E
:10BFF000A371431CE37198F8180069F00FFABB882D
:10C00000A28823F440731B041B0CBB8023681121FE
:10C010001A8320461CF0E2FDD4E62268A188E3E6FC
:10C0200005201DF01FFFB9F1000F4DD0D9F80030E9
:10C03000B9F804205A8305201DF014FF05201DF0D7
:10C0400011FFF8E603F5F2331A6A42F400121A629D
:10C050001A6A22F400121A6214E703F5F0331A6A1E
:10C0600042F480021A621A6A22F480021A6209E714
:10C0700005201DF0F7FE2368A2881A8305201DF015
:10C08000F1FEDDE603F5EE331A6A42F400021A62AD
:10C090001A6A22F400021A62F4E618330AF1040163
:10C0A000CA18D8F8047041F80390C2E90199C2F89F
:10C0B0000C9098F8180069F0B1F9BB8823F440732C
:10C0C0001B041B0CBB807DE605201DF0CBFE05206C
:10C0D0001DF0C8FEB4E600BF005400400058004008
:10C0E000005C004083DE1B43A0860100D34D62103C
:10C0F000301E00202DE9F84307461DF011FEDFF841
:10C100004C8007EB8709044608EBC90542F20F761D
:10C1100004E01DF005FE031BB3420ADC6B7F002B1D
:10C12000F7D108EBC90898F81C0080F00100BDE8C1
:10C13000F883B8F8A439013338469BB2A8F8A4397B
:10C14000FFF7EAFD0020BDE8F88300BF301E0020A5
:10C1500010B582B08DF80730431C0CD0022804467D
:10C1600009DC0DF1070369F0FFF820B12046FFF765
:10C17000C1FF02B010BD002002B010BD70B5284D47
:10C1800000EB800305EBC30384B05A685468A28AAD
:10C1900092B20392039A12F4706F1CBF01221A77B5
:10C1A000039B13F4E06F4FEA80060CD1A38A30445E
:10C1B00023F4706305EBC0051B041B0C0022A38253
:10C1C0006A7704B070BD238BA38823F480631B04BB
:10C1D0001B0CA380039B9A05E8D423889B05E5D418
:10C1E0002388D9050FD52388DA05FCD423889BB290
:10C1F00043F40073238023889B05FCD40190FFF750
:10C200008BFD0198D2E723889BB243F4007323800F
:10C21000A38823F440731B041B0CA380C6E700BF54
:10C22000301E00200020A9E70120A7E70220A5E793
:10C230002DE9F84F304F00EB800407EBC404D4F82D
:10C240000880B8F1000F04D09A46637F03F0FF091D
:10C2500023B14FF000094846BDE8F88F0E469346DB
:10C2600005461DF05DFD0A9B7600F6B2C4E9093370
:10C270000123A67784F81FB084F8219084F8223037
:10C2800084F820A0637784F81C90B8F80420910506
:10C29000064622D4B8F80030DA0512D442F20F7400
:10C2A00004E01DF03DFD831BA3421ADCB8F800300A
:10C2B0009B05F6D4B8F800309BB243F48073A8F81D
:10C2C0000030B8F804309BB24FF0010943F44073DA
:10C2D000A8F804304846BDE8F88F99464846BDE8BE
:10C2E000F88FB7F8A43901339BB22846A7F8A439D0
:10C2F000FFF712FDAFE700BF301E002070B5856963
:10C30000296995F84C210B78012B96B0044634D05E
:10C31000022B05D14B6A05F1100623B19E4202D0D3
:10C32000002016B070BD0B6A002BF9D162F07F02BD
:10C330008DF80F200DF10F0206920122CDE9073290
:10C34000CDE90A338DF824300F931293149304AB84
:10C350000C9306238DF838208DF84C200D93002285
:10C36000002306A93046CDE910231BF075FB2B698D
:10C370005A6A62B3964223D0FEE791F90460731CB7
:10C38000CED0022ECCDC04AB297D009330460623B0
:10C39000FFF74EFF0028C3D03046FFF7ABFE002862
:10C3A000BED0BDF81010BDF81220BDF8143049BA47
:10C3B00052BA5BBA0120E1812282638216B070BD5D
:10C3C0001A6A002AEDD01A6A002AF9D1E9E71A6A36
:10C3D000002AE6D01A6A002AF9D1E2E730B50169ED
:10C3E00090F84D210B78012B97B0044634D0022BE6
:10C3F00005D14B6A00F1100523B19D4202D0002007
:10C4000017B030BD0B6A002BF9D10121CDE90731FE
:10C41000CDE90A338DF824300F931293149304ABB3
:10C4200062F07F020DF10F000C93062306908DF849
:10C430000F208DF8381000228DF84C100D9306A9AE
:10C4400000232846CDE910231BF006FB23695A6A16
:10C450007AB3954226D0FEE791F904506B1CCED0FA
:10C46000022DCCDC04AB017D009328460623FFF7A8
:10C47000DFFE0028C3D02846FFF73CFE0028BED0D0
:10C48000BDF81010BDF81220BDF8143049BA52BAE8
:10C490005BBA0120A4F8D010A4F8D220A4F8D430BC
:10C4A00017B030BD1A6A002AEAD01A6A002AF9D1F8
:10C4B000E6E71A6A002AE3D01A6A002AF9D1DFE710
:10C4C000F8B5724C04EB0016D6F8A839002B00F032
:10C4D0008A800546070196F8B00968F09FFF96F834
:10C4E000B039590903F01F0203294FF0010303FA81
:10C4F00002F300F08E8004297BD0022974D0E31966
:10C50000013593F8AC091CF025FBEDB2064610B1DD
:10C5100012238371C571E31993F8AD091CF01AFB5E
:10C5200010B11323C5718371E31993F8AE091CF0A0
:10C5300011FB10B11423C57183713C444A2194F856
:10C54000AF2930461AF0E0FA94F8AD091CF002FB6E
:10C5500094F8AF292A211AF0D7FA94F8AE091CF002
:10C56000F9FA94F8AF290A211AF0CEFAD4F8A829DA
:10C57000474B9A4252D0474B9A423FD0464B9A4241
:10C5800057D0464B9A425FD0454B9A4267D0454BB5
:10C590009A426FD0444990884C8A0B8A4D8B234332
:10C5A0008C8A2343CC8A20F0030023430C8B0004A5
:10C5B000000C23438C8B90802B4310882343CC8B1F
:10C5C000098C00F44150234303439BB21380938BA7
:10C5D00023F400631B041B0C9383118213889BB20A
:10C5E00043F040031380F8BD304A516A0B43536255
:10C5F00085E72E4A11690B43136180E703F5003389
:10C60000196A41F480411962196A21F48041196262
:10C61000C0E7264A116A0B43136270E703F58433BF
:10C62000596A41F480515962596A21F48051596222
:10C63000B0E703F5FE33196A41F400411962196A43
:10C6400021F400411962A5E703F58233596A41F4E8
:10C6500000515962596A21F4005159629AE703F571
:10C660006843596A41F480115962596A21F4801172
:10C6700059628FE703F56443596A41F40011596226
:10C68000596A21F40011596284E700BF301E00206E
:10C690000030014000380040003C004000340140C0
:10C6A0000050014000540140880100200038024041
:10C6B00010B404698269E468416814604024D4605D
:10C6C000446900230C31C2E90433C2E90633C2E9EC
:10C6D0000833C2E90A33C2E90C33936093635160B3
:10C6E00084B1C269E0689363C2E90233C2E90433EA
:10C6F000C2E90633C2E90833C2E90A33C2E90C339E
:10C70000C2E900015DF8044B704700BF4368002296
:10C710001A60037D1F2B08D9203B2022016802FAF2
:10C7200003F343F01803CB6070472022016802FA3C
:10C7300003F343F018038B60704700BF0268136A6D
:10C7400011B1D96901B3143330B49C681D68916983
:10C75000DDB14FF4806088618D60104640690C61E6
:10C7600080B15968D369C9B10A464FF480619A60B3
:10C770009961224312F0010F14BF00224FF40052BE
:10C780001A621C6130BC704770478D61054D4FF0D7
:10C79000FF0C05F822CF00688D60DFE7024A9A603F
:10C7A0009961E6E788010020082800200168F8B5B3
:10C7B000D1E9042304465568002B49D09861107DC7
:10C7C0005E681F2831D81768202202FA00F040F076
:10C7D0001800B8601A7D1F2A32D91868203A202321
:10C7E00003FA02F242F01802C26000232B603360A9
:10C7F0003368896943F010033360284661F0B0FD67
:10C8000023683046D96961F0ABFD2B68226843F09C
:10C8100001032B603368526843F00103336093884F
:10C820009BB243F003039380F8BD176820382022A1
:10C8300002FA00F040F01800F8601A7D1F2ACCD8E8
:10C840001868202303FA02F242F018028260CCE753
:10C85000137D90611F2B1CD81068202202FA03F36D
:10C8600043F01803836000232B602B68896943F031
:10C8700010032B60284661F073FD2B68226843F09B
:10C88000010352682B6093889BB243F002039380AC
:10C89000F8BD1068203B202202FA03F343F018038E
:10C8A000C360E0E72DE9F843DFF800927D4F0646CC
:10C8B000356896F888806B68B088012285F8282052
:10C8C0001A8822F040021204120C1A802A8982422D
:10C8D00023D0198821F0380109044B454FEA114152
:10C8E00000F0BC80704A934200F0B8800246B2F576
:10C8F000807FA8BF4FF48072022AB8BF0222002AAC
:10C9000092FAA2F2B2FA82F208BF4FF0FF32013A75
:10C9100041EAC20292B21A802881317BAA7A8A4205
:10C920000CD01A8822F003021204120C1A801A8802
:10C9300092B2002900F08F801A80A9721A8892B2F0
:10C9400042F040021A802A6A9168002900F0A08013
:10C950004FF0000C1432E64652F8100C8E4400EAF8
:10C96000070120B1B1F1805F23D0696909B352F8A2
:10C97000140C143200EA070110B1B1F1805F18D035
:10C9800052F80C1C0CF1010C0029E5D12A7B82B174
:10C99000B8F1000F0DD0BCF1010F6CD8BEF1070F3C
:10C9A00069D80CEB8C0189002A6A11440A7B002AA1
:10C9B00061D02A6A9268002A52D000220AB1127B02
:10C9C00022B1B26812B1116892884A832A6A146847
:10C9D0002A6A51682A6A9268501E9AB12CB322467C
:10C9E00012F801CB14461A899207FCD5A3F80CC0A3
:10C9F0001A89D207FCD59A8992B209B101F8012BA4
:10CA00000138EBD22B6A1B7BF3B92B6A1B6993B1FC
:10CA10002B6AD6F894001B699847012808D0022891
:10CA200009D100232B62BDE8F8834FF0FF0CDAE751
:10CA30002B6A143B2B622A6A2B6A14332B622B6AF3
:10CA40009B686BB16B68B9E7B368002BDDD01A68DF
:10CA50009B881383D9E742F003026DE7420846E75B
:10CA60002B6A1B68DBB12B6AD3E900622A620022C1
:10CA7000C3E900221CE700213046FFF75FFEB368E0
:10CA800013B11A689B8853833046BDE8F8438DE69E
:10CA90002A7B002A8DD0B8F1000F85D189E72B625F
:10CAA000C1E700BF0000FFFF003C0040003800402D
:10CAB0000248436B0BB124301847704788010020AF
:10CAC0000248836D0BB14830184770478801002039
:10CAD0000248C36F0BB16C301847704788010020C3
:10CAE0000348D0F8A0300BB190301847704700BF12
:10CAF000880100200348D0F8C4300BB1B430184787
:10CB0000704700BF880100200348D0F8E8300BB11F
:10CB1000D8301847704700BF880100200348D0F87C
:10CB20000C310BB1FC301847704700BF8801002062
:10CB30000348D0F8303113B100F5907018477047B2
:10CB4000880100200348D0F8543113B100F5A270D9
:10CB500018477047880100200348D0F8783113B196
:10CB600000F5B47018477047880100200348D0F8DA
:10CB70009C3113B100F5C67018477047880100203A
:10CB80000348D0F8C03113B100F5D870184770478A
:10CB9000880100200348D0F8E43113B100F5EA70B1
:10CBA00018477047880100200348D0F8083213B1B5
:10CBB00000F5FC7018477047880100200348D0F842
:10CBC0002C3213B100F50770184770478801002018
:10CBD0000348D0F8503213B100F510701847704771
:10CBE00088010020094B0A4A013800EBC00003EB22
:10CBF0008000116B436A074883420CBF4FF4001357
:10CC00004FF480030B431363704700BF880100207B
:10CC1000003802400060024070B501383C4C3D4D88
:10CC200000EBC00C04EB8C0C9646DCF824603A4A0E
:10CC3000AE420CBF4FF400154FF48005166B354320
:10CC40001563CCF83410CCF83C303449DCF828308B
:10CC50008B424FEAC0023ED001F580618B423AD050
:10CC6000A1F57A718B4246D001F580618B4242D0AA
:10CC7000A1F57A718B4240D001F580618B423CD0A6
:10CC8000A1F57A718B4234D001F580618B4230D0AE
:10CC9000A1F57A718B4232D001F580618B422ED0A2
:10CCA000A1F57A718B422CD001F580618B4228D09E
:10CCB000A1F57A718B4226D001F580618B4222D09A
:10CCC000A1F57A718B4220D0154D01F580618B4220
:10CCD00018BF002500E0134D104404EB8003CEF391
:10CCE00087115D6493F83900BDE87040002266F05A
:10CCF0007DBC0D4DF0E70D4DEEE70D4DECE70D4D14
:10CD0000EAE70D4DE8E70D4DE6E7054DE4E700BF26
:10CD1000880100200060024000380240106002409C
:10CD2000008000282080001000800018008800107B
:10CD3000008020102080002000880020008020201B
:10CD40002DE9F04FA24BDFF8A89293F8EE39A14FEE
:10CD50008DB0CDE90139013BDBB200939E4B00253C
:10CD6000A3F5DC66DFF88CB2DFF88CA25B46D34615
:10CD70009A464FEA9A23A3F58013522B4CD833449A
:10CD800093F898310D2B47D8FC56019B012B40F0AE
:10CD9000FE80012C35D14FF00008414620461DF0A1
:10CDA00003FF1DF08DFF037813B1542B40F0098170
:10CDB00008F104081FFA88F8B8F1100FEDD14FF010
:10CDC000000E8DB3494600200CE0334493F89831AF
:10CDD0000D2B0ED8FB56A3420ED00130A84201F510
:10CDE00080711EDA8A6813689B0AA3F58013522BA0
:10CDF000EBD90023A342F0D153799BF805209A4246
:10CE0000EBD1754B9B454BD05BF820AF4FEA9A2393
:10CE1000A3F58013522BB2D9009B012BF1D900242A
:10CE2000B9E7BEF1000FECD158461BF0D7FAC3B2F8
:10CE3000022B9BF805C000F23883431C5BB203EB66
:10CE400043034FEA830E654B654903F5727004E0B6
:10CE5000834200F02A8353F82C1F5145F8D11A79E8
:10CE60006245F5D153F80E40002CF1D05D48002307
:10CE70004268A24203F1010300F08680102B00F10A
:10CE80002400F5D14FF0FF33574A03EBC30302EB05
:10CE9000830393F84030002BB3D1029BC3F808B052
:10CEA000029B013503F58073042D02937FF45AAF82
:10CEB000DFF848A10AF29C534FF0010800934B4B56
:10CEC000D3F8082508F1FF339A425ADDDAF80C50FE
:10CED000002D00F0E6822968AE8801F13F4101F59E
:10CEE0007E01B6FA86F6890AC6F11F063F4B5F68D7
:10CEF000002F40F38780002302E00133BB427FD044
:10CF00001C0259F804208A42F7D14C44CAF8046044
:10CF1000CAF818405FFA88F315B1EB710323AB71BF
:10CF2000636CE16C7200032090400343636401234F
:10CF300003FA02F20A43E2642C4A127872B3226DB9
:10CF4000B3401A43226515B12A68A9881183D4F821
:10CF5000A00099B20122FBF75BFA2046FBF7AEFB7B
:10CF6000009A012308F101088AF81C308AF81D3064
:10CF70005374B8F1090F02F118030AF1200A009363
:10CF80009DD10DB0BDE8F08FDBB2013B7CE7022BF9
:10CF90007FF401AF082C3FF4FEAE32E7226D06F1BC
:10CFA00010018B401343236515B12B68AA885A835F
:10CFB0000121B140D4F8A00089B20022FBF728FA81
:10CFC000CBE74FF0010E002D7FF4FCAE19E700BF58
:10CFD000301E0020F44C0808C8BC0708D4B7070866
:10CFE00000000140AC010020880100200400001076
:10CFF0000C00001000040140C8BB07080C0400101E
:10D00000032B5EDCA44B03EB07233A021869019261
:10D01000002800F03F8299600131CAB283F80521EF
:10D0200002929D4AD0F800B001375760542283F82D
:10D03000042144791BF0D2F9984AC3B292F803CA8A
:10D040009AF810200392022B00F22F82471C7FB225
:10D0500007EB4707924A9349BF00002305E00133DD
:10D06000172B00F0228252F82C1F8B45F7D1117933
:10D07000A142F4D1D1590029F1D02C2200EB40007B
:10D0800002FB03F3884A03EB800313440198D3F8AF
:10D09000FC21814B0344C3E90612844B00221F4646
:10D0A0001846436899421DD00132102A00F124002D
:10D0B000F7D17F4B1A7F42B954221A77029A5A77D6
:10D0C00003E0764A032382F8023A734879497A4AA0
:10D0D0007A4BC0F88C19C0F88429C0F894390DB087
:10D0E000BDE8F08F531CDBB2714A0597013B03EB9F
:10D0F000C30302EB830393F840200492002AE4D197
:10D10000019F029A83F84120FA116D496D4C02EBA0
:10D110002722542002EB021201EB820283F8400026
:10D120008C21381201FB00F004EB40005A4CE3194B
:10D130002C68C3F8A8203322DC60C3E93C01C3F8A3
:10D14000AC20614B9B4509EB070418D0554B9B4520
:10D1500015D003F580439B4511D003F580639B45B3
:10D160000DD003F580639B4509D04C4B1A68BCF188
:10D17000060F4FEA520207D15449554B0EE0474B78
:10D18000BCF1060F1A68F7D0524B53485349BCF113
:10D19000070F08BF1946524B08BF0346B2FBF3F313
:10D1A0003D4FB2FBF1F201995846013B07EB010BF1
:10D1B0009BB2013AABF8B020ABF868305431A365AC
:10D1C00000234944A4F85C30636561F04FFADBF852
:10D1D00010B04449DBF80000028892B242F08002AD
:10D1E00002800023ADF82030038807914FF480724D
:10D1F000022123F00103CDE90A121B044FF00A0CAF
:10D200001B0CCDF824C003809BF8051007AA1EF064
:10D210000DFA9BF80400002840F024811E4B019A6F
:10D22000059F9A1800231069D2F818C001680A886F
:10D2300092B242F001020A807A68944503F1010338
:10D2400000F00C81102B07F12407F5D14FF0FF33CC
:10D25000174A254FDFF898C003EBC30302EB8303A3
:10D26000224A5B6ABB420CBF4FF400134FF48003A9
:10D27000176B3B43136343790C2B9CBF0A4A02EBA9
:10D280004303019A98BFB3F80077034B134488BF58
:10D2900000279F82002334E004000010301E00208D
:10D2A000D4B7070800000140E8B50708AC0100202A
:10D2B00088010020ED520208E9520208F5520208E6
:10D2C00034280020642B002000040140882A11002B
:10D2D000A0BB0D001055220040771B0044950800AC
:10D2E000D0DD06006000010000600240003802400E
:10D2F000FC080010914200F0D2800133042B00F0B2
:10D30000D7805CF83320002AF4D16B4A1046D2F85B
:10D31000F4280132C0F8F42800EBC302DB00C2F8A5
:10D32000F818634404989A88644917439F80624AB6
:10D33000019BD71823469022FFF76EFCB86902685C
:10D34000002342F010020260C4E92533A367C4F849
:10D350008830C4F89C30FA6962664FF400310422C8
:10D36000C4E923124FF4806B4021C4F87CB02167DC
:10D37000D7F8AC106167F968019B1831A1664FF4CA
:10D380008051C4F88010D7F8A820E26603F1640148
:10D390004FF480424944C4F8842060F0E1FFB8694A
:10D3A000019BD0F800E0C4F81CE0D0F814E0C4F809
:10D3B00020E0D0F804E0C4F824E003F1AC01D0F898
:10D3C00008E0C4F828E00023D0F80CE0C4F82CE012
:10D3D000C4E93733C4F8B830C4F8C030C4F8D0302A
:10D3E000C4F8E43004224FF4403CFB69C4F8AC308C
:10D3F000C4E935C2C4F8C4B0D7F8F430C4F8BC30BE
:10D40000FB681033C4F8B0304FF40063C4F8C83080
:10D41000D7F8F030C4F8B4304FF480434944C4F82E
:10D42000CC3060F09DFFBA69116821635169616376
:10D430005168A1639168E163D1682164116841F08A
:10D4400010011160039A8AF810205FFA88F3CAF875
:10D450000460CAF80C50CAF818405EE5DBB20493C9
:10D46000013BF5E61BF076FB029038B19BF80820F3
:10D4700002211BF0DBF8029B5422DA80DBF800204B
:10D48000B2F844306FEA43436FEA53439BB2A2F8C9
:10D490004430C3E60A4A022382F8023A15E6DB006A
:10D4A0003FE74FF0FF36314620E500235B68FFDEA3
:10D4B00000239B88FFDE00BF040000105984000891
:10D4C000301E00200C4B984213D0A3F58063984285
:10D4D0000FD003F5804398420BD003F58063984248
:10D4E00007D003F58063984203D0044B18684008C6
:10D4F0007047024B1868704700040140301E00203E
:10D50000084B10B5D3F89C3018440C46007E1BF035
:10D5100021FB18B1036882880CB11A8310BD5A83AD
:10D52000FCE700BF282F00200B4B10B5D3F89C3030
:10D5300003440446187E1BF00DFB58B12E22827165
:10D54000621CC27101211BF029FD20460021BDE8AB
:10D550001040D5E710BD00BF282F00202DE9F04F67
:10D560008DB00E469DF8584001940393054600285F
:10D5700000F0CD80DFF8C8C1077900230CF1A004CA
:10D5800002E0152B00F0C38003EB43010133605C24
:10D59000B842F6D161442F6891F9A28095F805E070
:10D5A0005FFA88F3022B00F2B28008F1010C4FFA07
:10D5B0008CFC0CEB4C0C5E4B4FEA8C0C002105E014
:10D5C0000131172903F12C0300F0A180186887426C
:10D5D000F6D118797045F3D153F80C40002CEFD0F8
:10D5E0002C2303FB01F108EB4808524BDFF854B140
:10D5F00001EB88011944D1F8FC3105939BF81C39E3
:10D600000093002B40F088804B4FBB6AA34200F090
:10D61000E182FB6C9C4200F0CB843B6FA34200F0A4
:10D62000C984D7F89430A34200F0C684D7F8B83044
:10D630009C4200F0C384D7F8DC30A34200F062843F
:10D64000D7F80031A34200F0BB84D7F824319C42C4
:10D6500000F0B884D7F84831A34200F0B884D7F876
:10D660006C31A34200F0BF84D7F890319C4200F0A7
:10D67000B884D7F8B431A34200F0B784D7F8D831D2
:10D680009C4200F0BC84D7F8FC31A34200F0BE8479
:10D69000D7F82032A34200F0B784D7F84432A3422F
:10D6A00008BF0F2300F0978200234FF0FF3A069344
:10D6B000009B002B48D00AEBCA0207EB82024FEA1C
:10D6C000CA03079392F84030392B00F02783D5F82E
:10D6D00000804FEA9822A2F58012522A00F29B8223
:10D6E00014490A4492F898210D2A00F294821349B1
:10D6F000895CCBB9079A524407EB820282F8411049
:10D70000392182F84010069A72B1009332E0DFF8B6
:10D7100034B09BF81C393BB1D5E9054305931CB1E6
:10D720000123009370E729B300200DB0BDE8F08F0E
:10D73000D4B70708E8B5070888010020F44C0808AA
:10D74000282F0020040000100AEBCA0307EB830314
:10D750004FEACA01079193F840100029E4D1013241
:10D7600083F84120032283F84020069B002BDBD066
:10D77000D5F80080DFF86C939BF8183906EB860229
:10D78000C2EBC20231B20B919100089109F1800104
:10D7900001EB82020992ABB3D9F89C28424500F014
:10D7A0001384012B2ED0D9F8B428904500F01684AC
:10D7B000022B27D0D9F8CC28424500F01884032B3F
:10D7C00020D0D9F8E428424500F01B84042B19D05E
:10D7D000D9F8FC28424500F01B84052B12D0D9F85B
:10D7E0001429424500F01784062B0BD0D9F82C29B8
:10D7F000424500F01484072B04D0D9F8442942454F
:10D8000000F0828303EB430209EBC2020293C2F8E9
:10D810009C885A1CD2B28BF818291346013B0299F6
:10D82000AB4A04938C2303FB069301EB410102EB0B
:10D83000C10183F89160C3F88850C3F8041195F8CA
:10D8400004C04FEA1C13013B052B0CF00F0C00F237
:10D850004F83A0490A9301EB4300B0F854E04EFA1D
:10D860000CF010F0010013D0012000FA0CFC0CF1B8
:10D87000FF3C0CEA0E006BF0EBFE96490A9B944AC3
:10D880000B44A2F5427293F86030184402EBC000DA
:10D89000019A9BF8003002F00101013113B182F0CE
:10D8A000010301938C2303FB0693490141F00A0114
:10D8B000C3F894102A7A19F027F9049B029A93422C
:10D8C00000F07082039B063BDBB20A93089A824900
:10D8D0006032531807EE903A8C2306FB03F303F1F2
:10D8E000680C0A468C4409EB030100206033A1F860
:10D8F000E400C1F8E800CCE901004FF0600C42F808
:10D9000003C0019B13F00202089200F07781DB0054
:10D9100003F00803A1F8EE300423A1F8F200A1F807
:10D92000E4308C2303FB06930021C3F8E8104FF08A
:10D930000A0C68799BF81C19A3F8F6C04FF0010C8B
